{
  "_format": "hh3-artifact-1",
  "contractName": "SimpleBank",
  "sourceName": "contracts/SimpleBank.sol",
  "abi": [
    {
      "inputs": [],
      "stateMutability": "nonpayable",
      "type": "constructor"
    },
    {
      "anonymous": false,
      "inputs": [
        {
          "indexed": true,
          "internalType": "address",
          "name": "user",
          "type": "address"
        },
        {
          "indexed": false,
          "internalType": "uint256",
          "name": "amount",
          "type": "uint256"
        }
      ],
      "name": "Deposit",
      "type": "event"
    },
    {
      "anonymous": false,
      "inputs": [
        {
          "indexed": true,
          "internalType": "address",
          "name": "user",
          "type": "address"
        },
        {
          "indexed": false,
          "internalType": "uint256",
          "name": "amount",
          "type": "uint256"
        }
      ],
      "name": "Withdraw",
      "type": "event"
    },
    {
      "stateMutability": "payable",
      "type": "fallback"
    },
    {
      "inputs": [],
      "name": "admin",
      "outputs": [
        {
          "internalType": "address",
          "name": "",
          "type": "address"
        }
      ],
      "stateMutability": "view",
      "type": "function"
    },
    {
      "inputs": [],
      "name": "deposit",
      "outputs": [],
      "stateMutability": "payable",
      "type": "function"
    },
    {
      "inputs": [],
      "name": "getAllUserBalances",
      "outputs": [
        {
          "components": [
            {
              "internalType": "address",
              "name": "user",
              "type": "address"
            },
            {
              "internalType": "uint256",
              "name": "balance",
              "type": "uint256"
            }
          ],
          "internalType": "struct SimpleBank.UserBalance[]",
          "name": "",
          "type": "tuple[]"
        }
      ],
      "stateMutability": "view",
      "type": "function"
    },
    {
      "inputs": [],
      "name": "getBalance",
      "outputs": [
        {
          "internalType": "uint256",
          "name": "",
          "type": "uint256"
        }
      ],
      "stateMutability": "view",
      "type": "function"
    },
    {
      "inputs": [],
      "name": "getContractBalance",
      "outputs": [
        {
          "internalType": "uint256",
          "name": "",
          "type": "uint256"
        }
      ],
      "stateMutability": "view",
      "type": "function"
    },
    {
      "inputs": [
        {
          "internalType": "uint256",
          "name": "withdrawAmount",
          "type": "uint256"
        }
      ],
      "name": "withdraw",
      "outputs": [],
      "stateMutability": "nonpayable",
      "type": "function"
    },
    {
      "stateMutability": "payable",
      "type": "receive"
    }
  ],
  "bytecode": "0x6080604052348015600e575f5ffd5b50335f5f6101000a81548173ffffffffffffffffffffffffffffffffffffffff021916908373ffffffffffffffffffffffffffffffffffffffff160217905550610d438061005b5f395ff3fe608060405260043610610058575f3560e01c806312065fe0146100d35780632e1a7d4d146100fd5780636348e35d146101255780636f9fb98a1461014f578063d0e30db014610179578063f851a4401461018357610098565b36610098576040517f08c379a000000000000000000000000000000000000000000000000000000000815260040161008f906107c4565b60405180910390fd5b6040517f08c379a00000000000000000000000000000000000000000000000000000000081526004016100ca9061082c565b60405180910390fd5b3480156100de575f5ffd5b506100e76101ad565b6040516100f49190610862565b60405180910390f35b348015610108575f5ffd5b50610123600480360381019061011e91906108a9565b6101f1565b005b348015610130575f5ffd5b50610139610443565b60405161014691906109f7565b60405180910390f35b34801561015a575f5ffd5b506101636105c4565b6040516101709190610862565b60405180910390f35b6101816105cb565b005b34801561018e575f5ffd5b50610197610718565b6040516101a49190610a26565b60405180910390f35b5f60015f3373ffffffffffffffffffffffffffffffffffffffff1673ffffffffffffffffffffffffffffffffffffffff1681526020019081526020015f2054905090565b5f8111610233576040517f08c379a000000000000000000000000000000000000000000000000000000000815260040161022a90610a89565b60405180910390fd5b60015f3373ffffffffffffffffffffffffffffffffffffffff1673ffffffffffffffffffffffffffffffffffffffff1681526020019081526020015f20548111156102b3576040517f08c379a00000000000000000000000000000000000000000000000000000000081526004016102aa90610af1565b60405180910390fd5b478111156102f6576040517f08c379a00000000000000000000000000000000000000000000000000000000081526004016102ed90610b59565b60405180910390fd5b8060015f3373ffffffffffffffffffffffffffffffffffffffff1673ffffffffffffffffffffffffffffffffffffffff1681526020019081526020015f205f8282546103429190610ba4565b925050819055505f3373ffffffffffffffffffffffffffffffffffffffff168260405161036e90610c04565b5f6040518083038185875af1925050503d805f81146103a8576040519150601f19603f3d011682016040523d82523d5f602084013e6103ad565b606091505b50509050806103f1576040517f08c379a00000000000000000000000000000000000000000000000000000000081526004016103e890610c62565b60405180910390fd5b3373ffffffffffffffffffffffffffffffffffffffff167f884edad9ce6fa2440d8a54cc123490eb96d2768479d49ff9c7366125a9424364836040516104379190610862565b60405180910390a25050565b60605f60028054905067ffffffffffffffff81111561046557610464610c80565b5b60405190808252806020026020018201604052801561049e57816020015b61048b61073c565b8152602001906001900390816104835790505b5090505f5f90505b6002805490508110156105bc576040518060400160405280600283815481106104d2576104d1610cad565b5b905f5260205f20015f9054906101000a900473ffffffffffffffffffffffffffffffffffffffff1673ffffffffffffffffffffffffffffffffffffffff16815260200160015f6002858154811061052c5761052b610cad565b5b905f5260205f20015f9054906101000a900473ffffffffffffffffffffffffffffffffffffffff1673ffffffffffffffffffffffffffffffffffffffff1673ffffffffffffffffffffffffffffffffffffffff1681526020019081526020015f20548152508282815181106105a4576105a3610cad565b5b602002602001018190525080806001019150506104a6565b508091505090565b5f47905090565b5f3390505f60015f8373ffffffffffffffffffffffffffffffffffffffff1673ffffffffffffffffffffffffffffffffffffffff1681526020019081526020015f20540361067457600281908060018154018082558091505060019003905f5260205f20015f9091909190916101000a81548173ffffffffffffffffffffffffffffffffffffffff021916908373ffffffffffffffffffffffffffffffffffffffff1602179055505b3460015f8373ffffffffffffffffffffffffffffffffffffffff1673ffffffffffffffffffffffffffffffffffffffff1681526020019081526020015f205f8282546106c09190610cda565b925050819055508073ffffffffffffffffffffffffffffffffffffffff167fe1fffcc4923d04b559f4d29a8bfc6cda04eb5b0d3c460751c2402c5c5cc9109c3460405161070d9190610862565b60405180910390a250565b5f5f9054906101000a900473ffffffffffffffffffffffffffffffffffffffff1681565b60405180604001604052805f73ffffffffffffffffffffffffffffffffffffffff1681526020015f81525090565b5f82825260208201905092915050565b7f557365206465706f736974282920746f2073656e6420455448000000000000005f82015250565b5f6107ae60198361076a565b91506107b98261077a565b602082019050919050565b5f6020820190508181035f8301526107db816107a2565b9050919050565b7f496e76616c69642066756e6374696f6e2063616c6c00000000000000000000005f82015250565b5f61081660158361076a565b9150610821826107e2565b602082019050919050565b5f6020820190508181035f8301526108438161080a565b9050919050565b5f819050919050565b61085c8161084a565b82525050565b5f6020820190506108755f830184610853565b92915050565b5f5ffd5b6108888161084a565b8114610892575f5ffd5b50565b5f813590506108a38161087f565b92915050565b5f602082840312156108be576108bd61087b565b5b5f6108cb84828501610895565b91505092915050565b5f81519050919050565b5f82825260208201905092915050565b5f819050602082019050919050565b5f73ffffffffffffffffffffffffffffffffffffffff82169050919050565b5f610926826108fd565b9050919050565b6109368161091c565b82525050565b6109458161084a565b82525050565b604082015f82015161095f5f85018261092d565b506020820151610972602085018261093c565b50505050565b5f610983838361094b565b60408301905092915050565b5f602082019050919050565b5f6109a5826108d4565b6109af81856108de565b93506109ba836108ee565b805f5b838110156109ea5781516109d18882610978565b97506109dc8361098f565b9250506001810190506109bd565b5085935050505092915050565b5f6020820190508181035f830152610a0f818461099b565b905092915050565b610a208161091c565b82525050565b5f602082019050610a395f830184610a17565b92915050565b7f416d6f756e74206d7573742062652067726561746572207468616e20300000005f82015250565b5f610a73601d8361076a565b9150610a7e82610a3f565b602082019050919050565b5f6020820190508181035f830152610aa081610a67565b9050919050565b7f496e73756666696369656e742042616c616e63650000000000000000000000005f82015250565b5f610adb60148361076a565b9150610ae682610aa7565b602082019050919050565b5f6020820190508181035f830152610b0881610acf565b9050919050565b7f4e6f7420656e6f7567682062616c616e636520696e20636f6e747261637400005f82015250565b5f610b43601e8361076a565b9150610b4e82610b0f565b602082019050919050565b5f6020820190508181035f830152610b7081610b37565b9050919050565b7f4e487b71000000000000000000000000000000000000000000000000000000005f52601160045260245ffd5b5f610bae8261084a565b9150610bb98361084a565b9250828203905081811115610bd157610bd0610b77565b5b92915050565b5f81905092915050565b50565b5f610bef5f83610bd7565b9150610bfa82610be1565b5f82019050919050565b5f610c0e82610be4565b9150819050919050565b7f5472616e73666572206661696c656400000000000000000000000000000000005f82015250565b5f610c4c600f8361076a565b9150610c5782610c18565b602082019050919050565b5f6020820190508181035f830152610c7981610c40565b9050919050565b7f4e487b71000000000000000000000000000000000000000000000000000000005f52604160045260245ffd5b7f4e487b71000000000000000000000000000000000000000000000000000000005f52603260045260245ffd5b5f610ce48261084a565b9150610cef8361084a565b9250828201905080821115610d0757610d06610b77565b5b9291505056fea264697066735822122040cf5febf58e464892e5231e1d1d0761894328790e0876fc040fbce84b64acc964736f6c634300081c0033",
  "linkReferences": {},
  "deployedLinkReferences": {},
  "immutableReferences": {},
  "inputSourceName": "project/contracts/SimpleBank.sol",
  "buildInfoId": "solc-0_8_28-b38334650b45d872b1701eb2082a8277df270c59"
}