{
  "_format": "hh3-artifact-1",
  "contractName": "SimpleBank",
  "sourceName": "contracts/SimpleBank.sol",
  "abi": [
    {
      "inputs": [],
      "stateMutability": "nonpayable",
      "type": "constructor"
    },
    {
      "anonymous": false,
      "inputs": [
        {
          "indexed": true,
          "internalType": "address",
          "name": "user",
          "type": "address"
        },
        {
          "indexed": false,
          "internalType": "uint256",
          "name": "amount",
          "type": "uint256"
        }
      ],
      "name": "Deposit",
      "type": "event"
    },
    {
      "anonymous": false,
      "inputs": [
        {
          "indexed": true,
          "internalType": "address",
          "name": "user",
          "type": "address"
        },
        {
          "indexed": false,
          "internalType": "uint256",
          "name": "amount",
          "type": "uint256"
        }
      ],
      "name": "Withdraw",
      "type": "event"
    },
    {
      "stateMutability": "payable",
      "type": "fallback"
    },
    {
      "inputs": [],
      "name": "admin",
      "outputs": [
        {
          "internalType": "address",
          "name": "",
          "type": "address"
        }
      ],
      "stateMutability": "view",
      "type": "function"
    },
    {
      "inputs": [],
      "name": "deposit",
      "outputs": [],
      "stateMutability": "payable",
      "type": "function"
    },
    {
      "inputs": [],
      "name": "getAllUserBalances",
      "outputs": [
        {
          "components": [
            {
              "internalType": "address",
              "name": "user",
              "type": "address"
            },
            {
              "internalType": "uint256",
              "name": "balance",
              "type": "uint256"
            }
          ],
          "internalType": "struct SimpleBank.UserBalance[]",
          "name": "",
          "type": "tuple[]"
        }
      ],
      "stateMutability": "view",
      "type": "function"
    },
    {
      "inputs": [],
      "name": "getBalance",
      "outputs": [
        {
          "internalType": "uint256",
          "name": "",
          "type": "uint256"
        }
      ],
      "stateMutability": "view",
      "type": "function"
    },
    {
      "inputs": [],
      "name": "getContractBalance",
      "outputs": [
        {
          "internalType": "uint256",
          "name": "",
          "type": "uint256"
        }
      ],
      "stateMutability": "view",
      "type": "function"
    },
    {
      "inputs": [
        {
          "internalType": "uint256",
          "name": "withdrawAmount",
          "type": "uint256"
        }
      ],
      "name": "withdraw",
      "outputs": [],
      "stateMutability": "nonpayable",
      "type": "function"
    },
    {
      "stateMutability": "payable",
      "type": "receive"
    }
  ],
  "bytecode": "0x6080604052348015600e575f5ffd5b50335f5f6101000a81548173ffffffffffffffffffffffffffffffffffffffff021916908373ffffffffffffffffffffffffffffffffffffffff160217905550610ec78061005b5f395ff3fe608060405260043610610058575f3560e01c806312065fe0146100d35780632e1a7d4d146100fd5780636348e35d146101255780636f9fb98a1461014f578063d0e30db014610179578063f851a4401461018357610098565b36610098576040517f08c379a000000000000000000000000000000000000000000000000000000000815260040161008f906108e0565b60405180910390fd5b6040517f08c379a00000000000000000000000000000000000000000000000000000000081526004016100ca90610948565b60405180910390fd5b3480156100de575f5ffd5b506100e76101ad565b6040516100f4919061097e565b60405180910390f35b348015610108575f5ffd5b50610123600480360381019061011e91906109c5565b6101f1565b005b348015610130575f5ffd5b50610139610443565b6040516101469190610b13565b60405180910390f35b34801561015a575f5ffd5b50610163610652565b604051610170919061097e565b60405180910390f35b6101816106e7565b005b34801561018e575f5ffd5b50610197610834565b6040516101a49190610b42565b60405180910390f35b5f60015f3373ffffffffffffffffffffffffffffffffffffffff1673ffffffffffffffffffffffffffffffffffffffff1681526020019081526020015f2054905090565b5f8111610233576040517f08c379a000000000000000000000000000000000000000000000000000000000815260040161022a90610ba5565b60405180910390fd5b60015f3373ffffffffffffffffffffffffffffffffffffffff1673ffffffffffffffffffffffffffffffffffffffff1681526020019081526020015f20548111156102b3576040517f08c379a00000000000000000000000000000000000000000000000000000000081526004016102aa90610c0d565b60405180910390fd5b478111156102f6576040517f08c379a00000000000000000000000000000000000000000000000000000000081526004016102ed90610c75565b60405180910390fd5b8060015f3373ffffffffffffffffffffffffffffffffffffffff1673ffffffffffffffffffffffffffffffffffffffff1681526020019081526020015f205f8282546103429190610cc0565b925050819055505f3373ffffffffffffffffffffffffffffffffffffffff168260405161036e90610d20565b5f6040518083038185875af1925050503d805f81146103a8576040519150601f19603f3d011682016040523d82523d5f602084013e6103ad565b606091505b50509050806103f1576040517f08c379a00000000000000000000000000000000000000000000000000000000081526004016103e890610d7e565b60405180910390fd5b3373ffffffffffffffffffffffffffffffffffffffff167f884edad9ce6fa2440d8a54cc123490eb96d2768479d49ff9c7366125a942436483604051610437919061097e565b60405180910390a25050565b60605f5f9054906101000a900473ffffffffffffffffffffffffffffffffffffffff1673ffffffffffffffffffffffffffffffffffffffff163373ffffffffffffffffffffffffffffffffffffffff16146104d3576040517f08c379a00000000000000000000000000000000000000000000000000000000081526004016104ca90610de6565b60405180910390fd5b5f60028054905067ffffffffffffffff8111156104f3576104f2610e04565b5b60405190808252806020026020018201604052801561052c57816020015b610519610858565b8152602001906001900390816105115790505b5090505f5f90505b60028054905081101561064a576040518060400160405280600283815481106105605761055f610e31565b5b905f5260205f20015f9054906101000a900473ffffffffffffffffffffffffffffffffffffffff1673ffffffffffffffffffffffffffffffffffffffff16815260200160015f600285815481106105ba576105b9610e31565b5b905f5260205f20015f9054906101000a900473ffffffffffffffffffffffffffffffffffffffff1673ffffffffffffffffffffffffffffffffffffffff1673ffffffffffffffffffffffffffffffffffffffff1681526020019081526020015f205481525082828151811061063257610631610e31565b5b60200260200101819052508080600101915050610534565b508091505090565b5f5f5f9054906101000a900473ffffffffffffffffffffffffffffffffffffffff1673ffffffffffffffffffffffffffffffffffffffff163373ffffffffffffffffffffffffffffffffffffffff16146106e1576040517f08c379a00000000000000000000000000000000000000000000000000000000081526004016106d890610de6565b60405180910390fd5b47905090565b5f3390505f60015f8373ffffffffffffffffffffffffffffffffffffffff1673ffffffffffffffffffffffffffffffffffffffff1681526020019081526020015f20540361079057600281908060018154018082558091505060019003905f5260205f20015f9091909190916101000a81548173ffffffffffffffffffffffffffffffffffffffff021916908373ffffffffffffffffffffffffffffffffffffffff1602179055505b3460015f8373ffffffffffffffffffffffffffffffffffffffff1673ffffffffffffffffffffffffffffffffffffffff1681526020019081526020015f205f8282546107dc9190610e5e565b925050819055508073ffffffffffffffffffffffffffffffffffffffff167fe1fffcc4923d04b559f4d29a8bfc6cda04eb5b0d3c460751c2402c5c5cc9109c34604051610829919061097e565b60405180910390a250565b5f5f9054906101000a900473ffffffffffffffffffffffffffffffffffffffff1681565b60405180604001604052805f73ffffffffffffffffffffffffffffffffffffffff1681526020015f81525090565b5f82825260208201905092915050565b7f557365206465706f736974282920746f2073656e6420455448000000000000005f82015250565b5f6108ca601983610886565b91506108d582610896565b602082019050919050565b5f6020820190508181035f8301526108f7816108be565b9050919050565b7f496e76616c69642066756e6374696f6e2063616c6c00000000000000000000005f82015250565b5f610932601583610886565b915061093d826108fe565b602082019050919050565b5f6020820190508181035f83015261095f81610926565b9050919050565b5f819050919050565b61097881610966565b82525050565b5f6020820190506109915f83018461096f565b92915050565b5f5ffd5b6109a481610966565b81146109ae575f5ffd5b50565b5f813590506109bf8161099b565b92915050565b5f602082840312156109da576109d9610997565b5b5f6109e7848285016109b1565b91505092915050565b5f81519050919050565b5f82825260208201905092915050565b5f819050602082019050919050565b5f73ffffffffffffffffffffffffffffffffffffffff82169050919050565b5f610a4282610a19565b9050919050565b610a5281610a38565b82525050565b610a6181610966565b82525050565b604082015f820151610a7b5f850182610a49565b506020820151610a8e6020850182610a58565b50505050565b5f610a9f8383610a67565b60408301905092915050565b5f602082019050919050565b5f610ac1826109f0565b610acb81856109fa565b9350610ad683610a0a565b805f5b83811015610b06578151610aed8882610a94565b9750610af883610aab565b925050600181019050610ad9565b5085935050505092915050565b5f6020820190508181035f830152610b2b8184610ab7565b905092915050565b610b3c81610a38565b82525050565b5f602082019050610b555f830184610b33565b92915050565b7f416d6f756e74206d7573742062652067726561746572207468616e20300000005f82015250565b5f610b8f601d83610886565b9150610b9a82610b5b565b602082019050919050565b5f6020820190508181035f830152610bbc81610b83565b9050919050565b7f496e73756666696369656e742042616c616e63650000000000000000000000005f82015250565b5f610bf7601483610886565b9150610c0282610bc3565b602082019050919050565b5f6020820190508181035f830152610c2481610beb565b9050919050565b7f4e6f7420656e6f7567682062616c616e636520696e20636f6e747261637400005f82015250565b5f610c5f601e83610886565b9150610c6a82610c2b565b602082019050919050565b5f6020820190508181035f830152610c8c81610c53565b9050919050565b7f4e487b71000000000000000000000000000000000000000000000000000000005f52601160045260245ffd5b5f610cca82610966565b9150610cd583610966565b9250828203905081811115610ced57610cec610c93565b5b92915050565b5f81905092915050565b50565b5f610d0b5f83610cf3565b9150610d1682610cfd565b5f82019050919050565b5f610d2a82610d00565b9150819050919050565b7f5472616e73666572206661696c656400000000000000000000000000000000005f82015250565b5f610d68600f83610886565b9150610d7382610d34565b602082019050919050565b5f6020820190508181035f830152610d9581610d5c565b9050919050565b7f4f6e6c792061646d696e2063616e2063616c6c207468697300000000000000005f82015250565b5f610dd0601883610886565b9150610ddb82610d9c565b602082019050919050565b5f6020820190508181035f830152610dfd81610dc4565b9050919050565b7f4e487b71000000000000000000000000000000000000000000000000000000005f52604160045260245ffd5b7f4e487b71000000000000000000000000000000000000000000000000000000005f52603260045260245ffd5b5f610e6882610966565b9150610e7383610966565b9250828201905080821115610e8b57610e8a610c93565b5b9291505056fea2646970667358221220f113d7a03e0f5a8974c732daa9a787902160089a2a93bda43775045940e6abd864736f6c634300081c0033",
  "linkReferences": {},
  "deployedLinkReferences": {},
  "immutableReferences": {},
  "inputSourceName": "project/contracts/SimpleBank.sol",
  "buildInfoId": "solc-0_8_28-2b9eb9087e125d40b217321aed1c32a1aed5698b"
}