{
  "_format": "hh3-artifact-1",
  "contractName": "Vault",
  "sourceName": "contracts/Vault.sol",
  "abi": [
    {
      "anonymous": false,
      "inputs": [
        {
          "indexed": true,
          "internalType": "address",
          "name": "sender",
          "type": "address"
        },
        {
          "indexed": false,
          "internalType": "string",
          "name": "message",
          "type": "string"
        }
      ],
      "name": "LogMessage",
      "type": "event"
    },
    {
      "inputs": [],
      "name": "addDonation",
      "outputs": [],
      "stateMutability": "payable",
      "type": "function"
    },
    {
      "inputs": [],
      "name": "getAllDonations",
      "outputs": [
        {
          "components": [
            {
              "internalType": "address",
              "name": "donor",
              "type": "address"
            },
            {
              "internalType": "uint256",
              "name": "amount",
              "type": "uint256"
            }
          ],
          "internalType": "struct Vault.DonationInfo[]",
          "name": "",
          "type": "tuple[]"
        }
      ],
      "stateMutability": "view",
      "type": "function"
    },
    {
      "inputs": [],
      "name": "getAllDonors",
      "outputs": [
        {
          "internalType": "address[]",
          "name": "",
          "type": "address[]"
        }
      ],
      "stateMutability": "view",
      "type": "function"
    },
    {
      "inputs": [],
      "name": "getDonationForCaller",
      "outputs": [
        {
          "internalType": "uint256",
          "name": "",
          "type": "uint256"
        }
      ],
      "stateMutability": "view",
      "type": "function"
    },
    {
      "inputs": [],
      "name": "owner",
      "outputs": [
        {
          "internalType": "address",
          "name": "",
          "type": "address"
        }
      ],
      "stateMutability": "view",
      "type": "function"
    },
    {
      "inputs": [
        {
          "internalType": "uint256",
          "name": "withdrawAmount",
          "type": "uint256"
        }
      ],
      "name": "withdraw",
      "outputs": [],
      "stateMutability": "nonpayable",
      "type": "function"
    },
    {
      "inputs": [],
      "name": "withdrawAll",
      "outputs": [],
      "stateMutability": "nonpayable",
      "type": "function"
    },
    {
      "stateMutability": "payable",
      "type": "receive"
    }
  ],
  "bytecode": "0x6080604052348015600e575f5ffd5b50335f5f6101000a81548173ffffffffffffffffffffffffffffffffffffffff021916908373ffffffffffffffffffffffffffffffffffffffff160217905550610d7e8061005b5f395ff3fe608060405260043610610073575f3560e01c80638da5cb5b1161004d5780638da5cb5b146100e657806398e36b0414610110578063afd2a2401461013a578063ced6d267146101645761007a565b80632e1a7d4d1461007e57806338a59a07146100a6578063853828b6146100d05761007a565b3661007a57005b5f5ffd5b348015610089575f5ffd5b506100a4600480360381019061009f9190610882565b61016e565b005b3480156100b1575f5ffd5b506100ba610309565b6040516100c791906109d0565b60405180910390f35b3480156100db575f5ffd5b506100e461048a565b005b3480156100f1575f5ffd5b506100fa61059c565b60405161010791906109ff565b60405180910390f35b34801561011b575f5ffd5b506101246105c0565b6040516101319190610ac0565b60405180910390f35b348015610145575f5ffd5b5061014e61064b565b60405161015b9190610aef565b60405180910390f35b61016c61068f565b005b5f5f9054906101000a900473ffffffffffffffffffffffffffffffffffffffff1673ffffffffffffffffffffffffffffffffffffffff163373ffffffffffffffffffffffffffffffffffffffff16146101fc576040517f08c379a00000000000000000000000000000000000000000000000000000000081526004016101f390610b88565b60405180910390fd5b8047811115610240576040517f08c379a000000000000000000000000000000000000000000000000000000000815260040161023790610bf0565b60405180910390fd5b81471015610283576040517f08c379a000000000000000000000000000000000000000000000000000000000815260040161027a90610bf0565b60405180910390fd5b3373ffffffffffffffffffffffffffffffffffffffff166108fc8390811502906040515f60405180830381858888f193505050501580156102c6573d5f5f3e3d5ffd5b506103056040518060400160405280601381526020017f5769746864726177616c206578656375746564000000000000000000000000008152506107cc565b5050565b60605f60028054905067ffffffffffffffff81111561032b5761032a610c0e565b5b60405190808252806020026020018201604052801561036457816020015b61035161081d565b8152602001906001900390816103495790505b5090505f5f90505b6002805490508110156104825760405180604001604052806002838154811061039857610397610c3b565b5b905f5260205f20015f9054906101000a900473ffffffffffffffffffffffffffffffffffffffff1673ffffffffffffffffffffffffffffffffffffffff16815260200160015f600285815481106103f2576103f1610c3b565b5b905f5260205f20015f9054906101000a900473ffffffffffffffffffffffffffffffffffffffff1673ffffffffffffffffffffffffffffffffffffffff1673ffffffffffffffffffffffffffffffffffffffff1681526020019081526020015f205481525082828151811061046a57610469610c3b565b5b6020026020010181905250808060010191505061036c565b508091505090565b5f5f9054906101000a900473ffffffffffffffffffffffffffffffffffffffff1673ffffffffffffffffffffffffffffffffffffffff163373ffffffffffffffffffffffffffffffffffffffff1614610518576040517f08c379a000000000000000000000000000000000000000000000000000000000815260040161050f90610b88565b60405180910390fd5b3373ffffffffffffffffffffffffffffffffffffffff166108fc4790811502906040515f60405180830381858888f1935050505015801561055b573d5f5f3e3d5ffd5b5061059a6040518060400160405280601381526020017f416c6c2066756e64732077697468647261776e000000000000000000000000008152506107cc565b565b5f5f9054906101000a900473ffffffffffffffffffffffffffffffffffffffff1681565b6060600280548060200260200160405190810160405280929190818152602001828054801561064157602002820191905f5260205f20905b815f9054906101000a900473ffffffffffffffffffffffffffffffffffffffff1673ffffffffffffffffffffffffffffffffffffffff16815260200190600101908083116105f8575b5050505050905090565b5f60015f3373ffffffffffffffffffffffffffffffffffffffff1673ffffffffffffffffffffffffffffffffffffffff1681526020019081526020015f2054905090565b5f3390505f60015f8373ffffffffffffffffffffffffffffffffffffffff1673ffffffffffffffffffffffffffffffffffffffff1681526020019081526020015f20540361073857600281908060018154018082558091505060019003905f5260205f20015f9091909190916101000a81548173ffffffffffffffffffffffffffffffffffffffff021916908373ffffffffffffffffffffffffffffffffffffffff1602179055505b3460015f8373ffffffffffffffffffffffffffffffffffffffff1673ffffffffffffffffffffffffffffffffffffffff1681526020019081526020015f205f8282546107849190610c95565b925050819055506107c96040518060400160405280601581526020017f4e657720646f6e6174696f6e20726563656976656400000000000000000000008152506107cc565b50565b3373ffffffffffffffffffffffffffffffffffffffff167fdf2f43000ad262ff927c671ed83129f9054af075e5d3add03a2ba7116e719a51826040516108129190610d28565b60405180910390a250565b60405180604001604052805f73ffffffffffffffffffffffffffffffffffffffff1681526020015f81525090565b5f5ffd5b5f819050919050565b6108618161084f565b811461086b575f5ffd5b50565b5f8135905061087c81610858565b92915050565b5f602082840312156108975761089661084b565b5b5f6108a48482850161086e565b91505092915050565b5f81519050919050565b5f82825260208201905092915050565b5f819050602082019050919050565b5f73ffffffffffffffffffffffffffffffffffffffff82169050919050565b5f6108ff826108d6565b9050919050565b61090f816108f5565b82525050565b61091e8161084f565b82525050565b604082015f8201516109385f850182610906565b50602082015161094b6020850182610915565b50505050565b5f61095c8383610924565b60408301905092915050565b5f602082019050919050565b5f61097e826108ad565b61098881856108b7565b9350610993836108c7565b805f5b838110156109c35781516109aa8882610951565b97506109b583610968565b925050600181019050610996565b5085935050505092915050565b5f6020820190508181035f8301526109e88184610974565b905092915050565b6109f9816108f5565b82525050565b5f602082019050610a125f8301846109f0565b92915050565b5f81519050919050565b5f82825260208201905092915050565b5f819050602082019050919050565b5f610a4c8383610906565b60208301905092915050565b5f602082019050919050565b5f610a6e82610a18565b610a788185610a22565b9350610a8383610a32565b805f5b83811015610ab3578151610a9a8882610a41565b9750610aa583610a58565b925050600181019050610a86565b5085935050505092915050565b5f6020820190508181035f830152610ad88184610a64565b905092915050565b610ae98161084f565b82525050565b5f602082019050610b025f830184610ae0565b92915050565b5f82825260208201905092915050565b7f4f6e6c79206f776e65722063616e2063616c6c20746869732066756e6374696f5f8201527f6e00000000000000000000000000000000000000000000000000000000000000602082015250565b5f610b72602183610b08565b9150610b7d82610b18565b604082019050919050565b5f6020820190508181035f830152610b9f81610b66565b9050919050565b7f4e6f7420656e6f7567682062616c616e636520696e20636f6e747261637400005f82015250565b5f610bda601e83610b08565b9150610be582610ba6565b602082019050919050565b5f6020820190508181035f830152610c0781610bce565b9050919050565b7f4e487b71000000000000000000000000000000000000000000000000000000005f52604160045260245ffd5b7f4e487b71000000000000000000000000000000000000000000000000000000005f52603260045260245ffd5b7f4e487b71000000000000000000000000000000000000000000000000000000005f52601160045260245ffd5b5f610c9f8261084f565b9150610caa8361084f565b9250828201905080821115610cc257610cc1610c68565b5b92915050565b5f81519050919050565b8281835e5f83830152505050565b5f601f19601f8301169050919050565b5f610cfa82610cc8565b610d048185610b08565b9350610d14818560208601610cd2565b610d1d81610ce0565b840191505092915050565b5f6020820190508181035f830152610d408184610cf0565b90509291505056fea26469706673582212205d3a0f702cf59de10792d998e624c57b09c456f8ff2260d6a4ce6616b4d3025d64736f6c634300081c0033",
  "linkReferences": {},
  "deployedLinkReferences": {},
  "immutableReferences": {},
  "inputSourceName": "project/contracts/Vault.sol",
  "buildInfoId": "solc-0_8_28-b5a011f361004085dc0cabb5f5f17b432b6fbbf5"
}