{
  "_format": "hh-sol-artifact-1",
  "contractName": "Vault",
  "sourceName": "contracts/Vault.sol",
  "abi": [
    {
      "anonymous": false,
      "inputs": [
        {
          "indexed": true,
          "internalType": "address",
          "name": "sender",
          "type": "address"
        },
        {
          "indexed": false,
          "internalType": "string",
          "name": "message",
          "type": "string"
        }
      ],
      "name": "LogMessage",
      "type": "event"
    },
    {
      "inputs": [],
      "name": "addDonation",
      "outputs": [],
      "stateMutability": "payable",
      "type": "function"
    },
    {
      "inputs": [],
      "name": "getAllDonations",
      "outputs": [
        {
          "components": [
            {
              "internalType": "address",
              "name": "donor",
              "type": "address"
            },
            {
              "internalType": "uint256",
              "name": "amount",
              "type": "uint256"
            }
          ],
          "internalType": "struct Vault.DonationInfo[]",
          "name": "",
          "type": "tuple[]"
        }
      ],
      "stateMutability": "view",
      "type": "function"
    },
    {
      "inputs": [],
      "name": "getAllDonors",
      "outputs": [
        {
          "internalType": "address[]",
          "name": "",
          "type": "address[]"
        }
      ],
      "stateMutability": "view",
      "type": "function"
    },
    {
      "inputs": [],
      "name": "getDonationForCaller",
      "outputs": [
        {
          "internalType": "uint256",
          "name": "",
          "type": "uint256"
        }
      ],
      "stateMutability": "view",
      "type": "function"
    },
    {
      "inputs": [],
      "name": "owner",
      "outputs": [
        {
          "internalType": "address",
          "name": "",
          "type": "address"
        }
      ],
      "stateMutability": "view",
      "type": "function"
    },
    {
      "inputs": [
        {
          "internalType": "uint256",
          "name": "withdrawAmount",
          "type": "uint256"
        }
      ],
      "name": "withdraw",
      "outputs": [],
      "stateMutability": "nonpayable",
      "type": "function"
    },
    {
      "inputs": [],
      "name": "withdrawAll",
      "outputs": [],
      "stateMutability": "nonpayable",
      "type": "function"
    },
    {
      "stateMutability": "payable",
      "type": "receive"
    }
  ],
  "bytecode": "0x6080604052348015600f57600080fd5b50336000806101000a81548173ffffffffffffffffffffffffffffffffffffffff021916908373ffffffffffffffffffffffffffffffffffffffff160217905550610df68061005f6000396000f3fe6080604052600436106100745760003560e01c80638da5cb5b1161004e5780638da5cb5b146100eb57806398e36b0414610116578063afd2a24014610141578063ced6d2671461016c5761007b565b80632e1a7d4d1461008057806338a59a07146100a9578063853828b6146100d45761007b565b3661007b57005b600080fd5b34801561008c57600080fd5b506100a760048036038101906100a291906108ad565b610176565b005b3480156100b557600080fd5b506100be610314565b6040516100cb9190610a08565b60405180910390f35b3480156100e057600080fd5b506100e961049c565b005b3480156100f757600080fd5b506101006105b1565b60405161010d9190610a39565b60405180910390f35b34801561012257600080fd5b5061012b6105d5565b6040516101389190610b03565b60405180910390f35b34801561014d57600080fd5b50610156610663565b6040516101639190610b34565b60405180910390f35b6101746106aa565b005b60008054906101000a900473ffffffffffffffffffffffffffffffffffffffff1673ffffffffffffffffffffffffffffffffffffffff163373ffffffffffffffffffffffffffffffffffffffff1614610204576040517f08c379a00000000000000000000000000000000000000000000000000000000081526004016101fb90610bd2565b60405180910390fd5b8047811115610248576040517f08c379a000000000000000000000000000000000000000000000000000000000815260040161023f90610c3e565b60405180910390fd5b8147101561028b576040517f08c379a000000000000000000000000000000000000000000000000000000000815260040161028290610c3e565b60405180910390fd5b3373ffffffffffffffffffffffffffffffffffffffff166108fc839081150290604051600060405180830381858888f193505050501580156102d1573d6000803e3d6000fd5b506103106040518060400160405280601381526020017f5769746864726177616c206578656375746564000000000000000000000000008152506107f1565b5050565b6060600060028054905067ffffffffffffffff81111561033757610336610c5e565b5b60405190808252806020026020018201604052801561037057816020015b61035d610842565b8152602001906001900390816103555790505b50905060005b600280549050811015610494576040518060400160405280600283815481106103a2576103a1610c8d565b5b9060005260206000200160009054906101000a900473ffffffffffffffffffffffffffffffffffffffff1673ffffffffffffffffffffffffffffffffffffffff1681526020016001600060028581548110610400576103ff610c8d565b5b9060005260206000200160009054906101000a900473ffffffffffffffffffffffffffffffffffffffff1673ffffffffffffffffffffffffffffffffffffffff1673ffffffffffffffffffffffffffffffffffffffff1681526020019081526020016000205481525082828151811061047c5761047b610c8d565b5b60200260200101819052508080600101915050610376565b508091505090565b60008054906101000a900473ffffffffffffffffffffffffffffffffffffffff1673ffffffffffffffffffffffffffffffffffffffff163373ffffffffffffffffffffffffffffffffffffffff161461052a576040517f08c379a000000000000000000000000000000000000000000000000000000000815260040161052190610bd2565b60405180910390fd5b3373ffffffffffffffffffffffffffffffffffffffff166108fc479081150290604051600060405180830381858888f19350505050158015610570573d6000803e3d6000fd5b506105af6040518060400160405280601381526020017f416c6c2066756e64732077697468647261776e000000000000000000000000008152506107f1565b565b60008054906101000a900473ffffffffffffffffffffffffffffffffffffffff1681565b6060600280548060200260200160405190810160405280929190818152602001828054801561065957602002820191906000526020600020905b8160009054906101000a900473ffffffffffffffffffffffffffffffffffffffff1673ffffffffffffffffffffffffffffffffffffffff168152602001906001019080831161060f575b5050505050905090565b6000600160003373ffffffffffffffffffffffffffffffffffffffff1673ffffffffffffffffffffffffffffffffffffffff16815260200190815260200160002054905090565b60003390506000600160008373ffffffffffffffffffffffffffffffffffffffff1673ffffffffffffffffffffffffffffffffffffffff168152602001908152602001600020540361075a576002819080600181540180825580915050600190039060005260206000200160009091909190916101000a81548173ffffffffffffffffffffffffffffffffffffffff021916908373ffffffffffffffffffffffffffffffffffffffff1602179055505b34600160008373ffffffffffffffffffffffffffffffffffffffff1673ffffffffffffffffffffffffffffffffffffffff16815260200190815260200160002060008282546107a99190610ceb565b925050819055506107ee6040518060400160405280601581526020017f4e657720646f6e6174696f6e20726563656976656400000000000000000000008152506107f1565b50565b3373ffffffffffffffffffffffffffffffffffffffff167fdf2f43000ad262ff927c671ed83129f9054af075e5d3add03a2ba7116e719a51826040516108379190610d9e565b60405180910390a250565b6040518060400160405280600073ffffffffffffffffffffffffffffffffffffffff168152602001600081525090565b600080fd5b6000819050919050565b61088a81610877565b811461089557600080fd5b50565b6000813590506108a781610881565b92915050565b6000602082840312156108c3576108c2610872565b5b60006108d184828501610898565b91505092915050565b600081519050919050565b600082825260208201905092915050565b6000819050602082019050919050565b600073ffffffffffffffffffffffffffffffffffffffff82169050919050565b600061093182610906565b9050919050565b61094181610926565b82525050565b61095081610877565b82525050565b60408201600082015161096c6000850182610938565b50602082015161097f6020850182610947565b50505050565b60006109918383610956565b60408301905092915050565b6000602082019050919050565b60006109b5826108da565b6109bf81856108e5565b93506109ca836108f6565b8060005b838110156109fb5781516109e28882610985565b97506109ed8361099d565b9250506001810190506109ce565b5085935050505092915050565b60006020820190508181036000830152610a2281846109aa565b905092915050565b610a3381610926565b82525050565b6000602082019050610a4e6000830184610a2a565b92915050565b600081519050919050565b600082825260208201905092915050565b6000819050602082019050919050565b6000610a8c8383610938565b60208301905092915050565b6000602082019050919050565b6000610ab082610a54565b610aba8185610a5f565b9350610ac583610a70565b8060005b83811015610af6578151610add8882610a80565b9750610ae883610a98565b925050600181019050610ac9565b5085935050505092915050565b60006020820190508181036000830152610b1d8184610aa5565b905092915050565b610b2e81610877565b82525050565b6000602082019050610b496000830184610b25565b92915050565b600082825260208201905092915050565b7f4f6e6c79206f776e65722063616e2063616c6c20746869732066756e6374696f60008201527f6e00000000000000000000000000000000000000000000000000000000000000602082015250565b6000610bbc602183610b4f565b9150610bc782610b60565b604082019050919050565b60006020820190508181036000830152610beb81610baf565b9050919050565b7f4e6f7420656e6f7567682062616c616e636520696e20636f6e74726163740000600082015250565b6000610c28601e83610b4f565b9150610c3382610bf2565b602082019050919050565b60006020820190508181036000830152610c5781610c1b565b9050919050565b7f4e487b7100000000000000000000000000000000000000000000000000000000600052604160045260246000fd5b7f4e487b7100000000000000000000000000000000000000000000000000000000600052603260045260246000fd5b7f4e487b7100000000000000000000000000000000000000000000000000000000600052601160045260246000fd5b6000610cf682610877565b9150610d0183610877565b9250828201905080821115610d1957610d18610cbc565b5b92915050565b600081519050919050565b60005b83811015610d48578082015181840152602081019050610d2d565b60008484015250505050565b6000601f19601f8301169050919050565b6000610d7082610d1f565b610d7a8185610b4f565b9350610d8a818560208601610d2a565b610d9381610d54565b840191505092915050565b60006020820190508181036000830152610db88184610d65565b90509291505056fea2646970667358221220d7cb42d31fd8e4b041c3e0f96f7be844181e5cfb67e61d059afc8410ab7866f064736f6c634300081c0033",
  "linkReferences": {},
  "deployedLinkReferences": {}
}