{
  "_format": "hh-sol-artifact-1",
  "contractName": "Vault",
  "sourceName": "contracts/Vault.sol",
  "abi": [
    {
      "anonymous": false,
      "inputs": [
        {
          "indexed": true,
          "internalType": "address",
          "name": "user",
          "type": "address"
        },
        {
          "indexed": false,
          "internalType": "uint256",
          "name": "amount",
          "type": "uint256"
        }
      ],
      "name": "Funder",
      "type": "event"
    },
    {
      "anonymous": false,
      "inputs": [
        {
          "indexed": true,
          "internalType": "address",
          "name": "user",
          "type": "address"
        },
        {
          "indexed": false,
          "internalType": "uint256",
          "name": "amount",
          "type": "uint256"
        }
      ],
      "name": "Withdrawal",
      "type": "event"
    },
    {
      "inputs": [],
      "name": "addFunds",
      "outputs": [],
      "stateMutability": "payable",
      "type": "function"
    },
    {
      "inputs": [],
      "name": "emitLog",
      "outputs": [
        {
          "internalType": "bytes32",
          "name": "",
          "type": "bytes32"
        }
      ],
      "stateMutability": "pure",
      "type": "function"
    },
    {
      "inputs": [],
      "name": "getAllFunders",
      "outputs": [
        {
          "internalType": "address[]",
          "name": "",
          "type": "address[]"
        }
      ],
      "stateMutability": "view",
      "type": "function"
    },
    {
      "inputs": [
        {
          "internalType": "uint8",
          "name": "index",
          "type": "uint8"
        }
      ],
      "name": "getFunderAtIndex",
      "outputs": [
        {
          "internalType": "address",
          "name": "",
          "type": "address"
        }
      ],
      "stateMutability": "view",
      "type": "function"
    },
    {
      "inputs": [],
      "name": "numOfFunders",
      "outputs": [
        {
          "internalType": "uint256",
          "name": "",
          "type": "uint256"
        }
      ],
      "stateMutability": "view",
      "type": "function"
    },
    {
      "inputs": [],
      "name": "owner",
      "outputs": [
        {
          "internalType": "address",
          "name": "",
          "type": "address"
        }
      ],
      "stateMutability": "view",
      "type": "function"
    },
    {
      "inputs": [],
      "name": "test5",
      "outputs": [
        {
          "internalType": "uint256",
          "name": "",
          "type": "uint256"
        }
      ],
      "stateMutability": "pure",
      "type": "function"
    },
    {
      "inputs": [],
      "name": "testNum",
      "outputs": [
        {
          "internalType": "uint256",
          "name": "",
          "type": "uint256"
        }
      ],
      "stateMutability": "view",
      "type": "function"
    },
    {
      "inputs": [
        {
          "internalType": "uint256",
          "name": "withdrawAmount",
          "type": "uint256"
        }
      ],
      "name": "withdraw",
      "outputs": [],
      "stateMutability": "nonpayable",
      "type": "function"
    },
    {
      "stateMutability": "payable",
      "type": "receive"
    }
  ],
  "bytecode": "0x6080604052348015600f57600080fd5b50336000806101000a81548173ffffffffffffffffffffffffffffffffffffffff021916908373ffffffffffffffffffffffffffffffffffffffff1602179055506103e8600181905550610ac7806100686000396000f3fe60806040526004361061008a5760003560e01c80638da5cb5b116100595780638da5cb5b14610152578063a26759cb1461017d578063ae28f1ed14610187578063af7f2c9b146101b2578063f42c13bf146101dd57610091565b80630a93cf33146100965780631ad7be82146100d35780632e1a7d4d146100fe5780636fbbb55d1461012757610091565b3661009157005b600080fd5b3480156100a257600080fd5b506100bd60048036038101906100b89190610683565b610208565b6040516100ca91906106f1565b60405180910390f35b3480156100df57600080fd5b506100e8610248565b6040516100f59190610725565b60405180910390f35b34801561010a57600080fd5b506101256004803603810190610120919061076c565b61025a565b005b34801561013357600080fd5b5061013c610382565b6040516101499190610857565b60405180910390f35b34801561015e57600080fd5b50610167610476565b60405161017491906106f1565b60405180910390f35b61018561049a565b005b34801561019357600080fd5b5061019c610608565b6040516101a99190610725565b60405180910390f35b3480156101be57600080fd5b506101c761060e565b6040516101d49190610725565b60405180910390f35b3480156101e957600080fd5b506101f2610614565b6040516101ff9190610892565b60405180910390f35b6000600460008360ff16815260200190815260200160002060009054906101000a900473ffffffffffffffffffffffffffffffffffffffff169050919050565b600061025261063c565b50600a905090565b8067016345785d8a00008111156102a6576040517f08c379a000000000000000000000000000000000000000000000000000000000815260040161029d90610930565b60405180910390fd5b814710156102e9576040517f08c379a00000000000000000000000000000000000000000000000000000000081526004016102e09061099c565b60405180910390fd5b3373ffffffffffffffffffffffffffffffffffffffff166108fc839081150290604051600060405180830381858888f1935050505015801561032f573d6000803e3d6000fd5b503373ffffffffffffffffffffffffffffffffffffffff167f7fcf532c15f0a6db0bd6d0e038bea71d30d808c7d98cb3bf7268a95bf5081b65836040516103769190610725565b60405180910390a25050565b6060600060025467ffffffffffffffff8111156103a2576103a16109bc565b5b6040519080825280602002602001820160405280156103d05781602001602082028036833780820191505090505b50905060005b60025481101561046e576004600082815260200190815260200160002060009054906101000a900473ffffffffffffffffffffffffffffffffffffffff16828281518110610427576104266109eb565b5b602002602001019073ffffffffffffffffffffffffffffffffffffffff16908173ffffffffffffffffffffffffffffffffffffffff168152505080806001019150506103d6565b508091505090565b60008054906101000a900473ffffffffffffffffffffffffffffffffffffffff1681565b6000339050600360008273ffffffffffffffffffffffffffffffffffffffff1673ffffffffffffffffffffffffffffffffffffffff16815260200190815260200160002060009054906101000a900460ff166105b75760006002600081548092919061050590610a49565b9190505590506001600360008473ffffffffffffffffffffffffffffffffffffffff1673ffffffffffffffffffffffffffffffffffffffff16815260200190815260200160002060006101000a81548160ff021916908315150217905550816004600083815260200190815260200160002060006101000a81548173ffffffffffffffffffffffffffffffffffffffff021916908373ffffffffffffffffffffffffffffffffffffffff160217905550505b3373ffffffffffffffffffffffffffffffffffffffff167f5c262a493f9f1ac7a734f4f966593fa4d83beadcfdd5ab9c90960214ae5d143e346040516105fd9190610725565b60405180910390a250565b60015481565b60025481565b60007f48656c6c6f20576f726c64000000000000000000000000000000000000000000905090565b60006064905090565b600080fd5b600060ff82169050919050565b6106608161064a565b811461066b57600080fd5b50565b60008135905061067d81610657565b92915050565b60006020828403121561069957610698610645565b5b60006106a78482850161066e565b91505092915050565b600073ffffffffffffffffffffffffffffffffffffffff82169050919050565b60006106db826106b0565b9050919050565b6106eb816106d0565b82525050565b600060208201905061070660008301846106e2565b92915050565b6000819050919050565b61071f8161070c565b82525050565b600060208201905061073a6000830184610716565b92915050565b6107498161070c565b811461075457600080fd5b50565b60008135905061076681610740565b92915050565b60006020828403121561078257610781610645565b5b600061079084828501610757565b91505092915050565b600081519050919050565b600082825260208201905092915050565b6000819050602082019050919050565b6107ce816106d0565b82525050565b60006107e083836107c5565b60208301905092915050565b6000602082019050919050565b600061080482610799565b61080e81856107a4565b9350610819836107b5565b8060005b8381101561084a57815161083188826107d4565b975061083c836107ec565b92505060018101905061081d565b5085935050505092915050565b6000602082019050818103600083015261087181846107f9565b905092915050565b6000819050919050565b61088c81610879565b82525050565b60006020820190506108a76000830184610883565b92915050565b600082825260208201905092915050565b7f43616e6e6f74207769746864726177206d6f7265207468616e20302e3120657460008201527f6865720000000000000000000000000000000000000000000000000000000000602082015250565b600061091a6023836108ad565b9150610925826108be565b604082019050919050565b600060208201905081810360008301526109498161090d565b9050919050565b7f4e6f7420656e6f7567682062616c616e636520696e20636f6e74726163740000600082015250565b6000610986601e836108ad565b915061099182610950565b602082019050919050565b600060208201905081810360008301526109b581610979565b9050919050565b7f4e487b7100000000000000000000000000000000000000000000000000000000600052604160045260246000fd5b7f4e487b7100000000000000000000000000000000000000000000000000000000600052603260045260246000fd5b7f4e487b7100000000000000000000000000000000000000000000000000000000600052601160045260246000fd5b6000610a548261070c565b91507fffffffffffffffffffffffffffffffffffffffffffffffffffffffffffffffff8203610a8657610a85610a1a565b5b60018201905091905056fea264697066735822122055a6f3ec4ae6e92609c80a001748c089fa098ece835ca9302b4944ad18370d3764736f6c634300081c0033",
  "linkReferences": {},
  "deployedLinkReferences": {}
}